:020000040800F2
:10000000400B0020ED010008F5010008F701000891
:10001000F9010008FB010008FD01000800000000D4
:10002000000000000000000000000000FF010008C8
:1000300001020008000000000302000899280008DF
:10004000070200080702000807020008F123000861
:100050000702000807020008DD1300083514000835
:10006000611400088D140008070200080702000848
:10007000070200080702000807020008070200083C
:10008000070200080702000807020008070200082C
:10009000070200080702000807020008B914000858
:1000A000070200080702000807020008070200080C
:1000B0004529000807020008070200080702000897
:1000C00007020008070200080702000807020008EC
:1000D00007020008070200080702000807020008DC
:1000E00009140008070200080702000800F002F8DF
:1000F00000F06DF80AA090E8000C82448344AAF155
:100100000107DA4501D100F062F8AFF2090EBAE852
:100110000F0013F0010F18BFFB1A43F0010318473B
:10012000545D0000745D00000A444FF0000C10F8AC
:10013000013B13F0070408BF10F8014B1D1108BF65
:1001400010F8015B641E05D010F8016B641E01F805
:10015000016BF9D113F0080F1EBF10F8014BAD1C55
:100160000C1B09D16D1E58BF01F801CBFAD505E073
:1001700014F8016B01F8016B6D1EF9D59142D6D3CD
:10018000704700000023002400250026103A28BFF5
:1001900078C1FBD8520728BF30C148BF0B607047F9
:1001A000662905F0F483642900F0A480732900F027
:1001B0001E84002070471FB500F01EFC04000020C4
:1001C000002104F089F9E0601FBD10B510BD00F0FA
:1001D00017FD1146FFF7EFFF02F0C4FE00F035FDFA
:1001E00003B4FFF7F2FF03BC00F078FD0948804735
:1001F00009480047FEE7FEE7FEE7FEE7FEE7FEE709
:10020000FEE7FEE7FEE7FEE704480549054A064B20
:1002100070470000ED280008ED00000840050020B0
:10022000400B002040070020400700200FB41CB501
:10023000074B06AA7B4469460090059800F0ADFB89
:100240000020694600F0BCFB1CBC5DF814FB0000FC
:100250008907000070B5044685690068C10601D5AC
:10026000302600E02026C00707D070BDD4E9012168
:1002700030469047206A401C20626D1EF6D570BD46
:1002800070B5044685690078C00707D170BDD4E910
:10029000012120209047206A401C20626D1EF6D567
:1002A00070BD70B50C460546012A05D02878800639
:1002B00000D5EA69002302E0012305E05B1C9342BC
:1002C00002D2E05C0028F9D1A869E618C01AA8613A
:1002D000286A184428622846FFF7BCFF04E0D5E9E5
:1002E000012114F8010B9047B442F8D32846FFF7D8
:1002F000C7FF70BD2DE9F04106460024106875293E
:10030000314616A510D0AFF30080002802DA404233
:1003100013A507E031688A0701D512A502E0490755
:1003200004D511A5012401E0AFF3008000210A22C9
:1003300006F1240709E0B0FBF2FCB0FBF2F302FB8C
:100340001C00303078541846491C0028F3D123464D
:100350002A463046BDE8F04100F0B2B80000000087
:100360002D0000002B000000200000002DE9F05FB0
:10037000894604464FF0000ADFF824B1FB44C0F878
:1003800020A02046E168884700287DD0252806D097
:10039000D4E901219047206A401C2062F1E7002542
:1003A0005F462046E16888472028064607DB312E55
:1003B00005D2B81910F8200C08B10543F1E7A807D9
:1003C00001D525F00405C4F81CA00027C4F818A026
:1003D0002A2E09D0304603F065FB38B304EB8708BA
:1003E000303EC8F8186019E059F8041B204604EBA9
:1003F00087029161E1688847012F064618D1E069BC
:10040000002820DA25F020051DE0D8F8180000EBC0
:10041000800006EB40003038C8F818002046E1683C
:100420008847064603F03EFB0028EED1012F0AD094
:100430002E2E08D12046E16888477F1C0646022FF1
:1004400045F02005C4DBA069002803DA404245F0EE
:100450000105A061E80701D025F01005A6B1A6F1BD
:100460004100192802D8203645F400654A46314635
:10047000204625604D46FFF793FE60B1012807D066
:10048000ED1D25F0070000E007E000F1080978E71E
:1004900005F1040975E730467AE7206ABDE8F09F68
:1004A0000257000070477047704710B500F0A8FA77
:1004B000006810BD10B5044600F0A2FA046010BD3B
:1004C0002DE9F0470D4699469246044600F124086E
:1004D0000168880604D5E06921F01001216000E080
:1004E0000120A84201DD471B00E00027A1697A191D
:1004F00002EB0900081AA0612078C00602D4204649
:10050000FFF7A8FE002608E0D4E901211AF806004A
:100510009047206A401C761C20624E45F4DB207810
:10052000C0060AD52046FFF795FE06E0D4E9012172
:1005300030209047206A401C2062381EA7F1010736
:10054000F4DC07E0D4E9012118F805009047206A9F
:10055000401C2062281EA5F10105F3DC2046FFF7B0
:100560008FFE2078000602D50220BDE8F08701202A
:10057000FBE72DE9FF4F0C461E464FF0FF378BB0CF
:10058000D2E90001DDF860800A908A46C1F30A557D
:1005900005B93D46002108464FF00000BAF1000FB2
:1005A00000F4400005DA00EB80004FF4400101EA5E
:1005B00050004FEA9059B9F1010F00DDB9460A9891
:1005C00050EA4A000ED044F61050A5F2FF354543DC
:1005D0002F14B8F1000F1ED07542291E1EDDC9F17F
:1005E00000021CE0B8F1010F4FF0000001D03021F3
:1005F00003E0F24305E02154401CB042FBDB3046EF
:100600000022002121540B99C1F80880C1E9002083
:100610000FB0BDE8F08FBD1B6D1CDEE74A4600DA67
:10062000694206A800F076FA06AB93E8070003AB30
:1006300083E8070050460A9902F0E3FD8DE80700C1
:10064000A0F500501F3800900398002D0ADD42F2FB
:100650001F014A460844002303A90390684603F09B
:100660004CF809E0A0F500504A461F38002303A9C2
:100670000390684603F056F88DE807000004000C6C
:1006800003D04FF0FF30410800E01046B8F1000FF2
:1006900003D00022009215461EE0751E05D400F01E
:1006A000B3F9303262556D1EF9D5B34601220843C5
:1006B00002D000227F1C04E02078302801D10022E3
:1006C0007F1E002A099784D01DE0112D07DA00F063
:1006D0009BF9303262556D1C50EA0102F5D1084396
:1006E00002D00098C8B10EE00021681E05E0235C2E
:1006F000625C63542254401E491C8142F7DBAB46C6
:10070000A81B401E0990002004F80B000B98099AC2
:10071000C0F80880C0E9002B7AE711264FF00008E6
:1007200057E72DE9F04F88460446D21D22F0070115
:1007300091B0D1E90001CDE90A0103F02AF902469E
:100740000B98C00F01D02D2007E02068810701D54C
:100750002B2002E0202101EAC000032A099001D0E9
:10076000072A05DB03464146204600F093F90BE1DA
:100770002078800601D5E06900E00620B8F1650F19
:10078000814606D0B8F1660F18D0B8F1670F70D166
:1007900031E00020B9F1110F009001DB112301E0DD
:1007A00009F101030AAA01A90CA8FFF7E2FEDDE99D
:1007B0000C70002609F10105834647E001204B46F5
:1007C00000904FF000470AAA01A90CA8FFF7D1FE3C
:1007D000DDE90DB00C995D46002610B909F1010064
:1007E0000D18B9EB050003D4C0F1FF3609F101057E
:1007F000A5EB09002BE0B9F1010F01DA4FF0010977
:100800000020B9F1110F0090484601DD112300E0EE
:1008100003460AAA01A90CA8FFF7ABFEDDE90C709C
:100820004D4600268346207800070AD4AB4500DAFF
:100830005D4601A8012D04DD411911F8011C302984
:1008400007D04F4502DA17F1040F04DA012082467F
:100850000FE06D1EEEE7002F02DCED1B3E4403E0CF
:10086000781CA84200DD7D1CB81B00F1010A4FF086
:1008700000472078000703D4AA4501DB4FF0FF3A78
:100880000021B7F1004F0DF143088DF8431024D03B
:1008900002202B23002F01DA7F422D230A21021E82
:1008A000A0F1010000DC5FB197FBF1FC97FBF1F2D6
:1008B00001FB1C7C17460CF1300C08F801CDEEE76B
:1008C000A8F1010003702188090501D5452100E048
:1008D0006521A0F1010800F8011C09980FA9A1EBFE
:1008E0000807FF1D00B10120411901EBEA70A16961
:1008F0003844081A401EA0612078C00602D4204661
:10090000FFF7A8FC099828B1D4E901219047206A93
:10091000401C20622078C00622D52046FFF79AFCB2
:100920001EE0002E04DBB34502DD01A8805D00E07F
:100930003020D4E901219047206A401C2062761CB7
:10094000AAF101005FEA000A0AD100F055F8C06878
:100950000168405CD4E901219047206A401C206274
:10096000281EA5F10105DCDC07E0D4E9012118F817
:10097000010B9047206A401C2062381EA7F1010736
:10098000F3DC2046FFF77CFC032011B041E60000B9
:1009900001694A1C02610878704700B58FB0CDE943
:1009A00001310021059105497944CDE90310114633
:1009B0006846FFF7DBFC0FB000BD0000E5FFFFFF5E
:1009C0000A6802F8010B0A60704710B5436913B159
:1009D000AFF3008001E0FFF764FC012010BD127846
:1009E00000F124010A7000224A700122EDE711682B
:1009F0004FF0FF32E9E7000000487047180400207C
:100A000000487047F803002030B5B0F10A0271F1D8
:100A100000034FEA900E4EEA817EB0EB0E0061EBD0
:100A200091014FEA101E4EEA017E10EB0E0041EBE1
:100A300011114FEA102E4EEA016E10EB0E0041EB41
:100A400011214FEA104E4EEA014E10EB0E0041EB21
:100A50001141401841F100014FEAD00040EA4170D5
:100A60004FEAD1014FEA810444EA907410EB80050B
:100A700044EB01046D1944EB0404521BA3414FF0F5
:100A8000000348BF0A3200D530BD401C41F10001CF
:100A900030BD00002DE9F0411F46044603260168E1
:100AA000072A01F4006004DB08B116A505E016A5CD
:100AB00003E008B115A500E015A521F010002060A5
:100AC000A069C01EA0610FB1401EA0612046FFF7C3
:100AD000C1FB4FB1D4E9012138469047206A401C40
:100AE0002062C01C206206E0206AFAE7D4E90121F6
:100AF00015F8010B9047761EF8D22046FFF7C0FB91
:100B0000BDE8F0814E414E006E616E00494E4600D8
:100B1000696E66002DE9F047814616468AB0354871
:100B200078440DC88DE80D0032487844801C03AC31
:100B30000DC884E80D0041F69B300844372190FB36
:100B4000F1F290FBF1F5A5F1800501FB12041B3CCD
:100B500002D56442012000E00020DFF898A0804622
:100B60000027FA44AAF1BE0A0EE0E0070AD0324696
:100B7000684607EB470101230AEB810102F0D2FD31
:100B80008DE8070064107F1C002CEED1194F7F44C4
:100B9000AE3F19E0E80715D007EB04100DF1180A75
:100BA00090E80E008AE80E00C068F04201D1981962
:100BB00008903246012306A903A802F0B3FD03AB57
:100BC00083E807006D10641C002DE3D14FF0010392
:100BD00032466946B8F1000F03A802D002F08DFD3D
:100BE00001E002F09FFDC9E90001C9F808200AB040
:100BF000BDE8F0878050000000487047F8030020EF
:100C00007546FFF7F9FFAE4605006946534620F0EA
:100C10000700854618B020B5FFF7F6FABDE820407A
:100C20004FF000064FF000074FF000084FF0000BA8
:100C3000AC46ACE8C009ACE8C009ACE8C009ACE817
:100C4000C00921F007018D46704710B50446AFF387
:100C500000802046BDE81040FFF7C2BA4FF0013CCB
:100C600050F8042B51F8043B9A4221D1A2EB0C031B
:100C7000934313EACC1317D150F8042B51F8043BDB
:100C80009A4215D1A2EB0C03934313EACC130BD178
:100C900050F8042B51F8043B9A4209D1A2EB0C0303
:100CA000934313EACC13DBD04FF00000704700BF32
:100CB000D01A01BAB1FA81F101F0180122FA01F05B
:100CC000CB40DBB2C0B2C01AC1F120012CFA01F353
:100CD000D11A914311EAC311E6D170470149182096
:100CE000ABBEFEE7260002007047000080B540F270
:100CF000A641C2F20001087840F2B04380F0010042
:100D0000087042F61800C4F20000C2F20003028824
:100D100080881B6840EA02409B681A7D40F2984335
:100D2000C2F20003092A18600ED8DFE802F0102290
:100D30003705404E0505645640F2CC310022C2F220
:100D40000001C4F216223AE00020087080BD40F293
:100D50007C00C2F20000006840F2CC31C2F2000117
:100D6000086040F23450C2F200004FF0FF310160E1
:100D700080BD40F27C00C2F20000006840F2CC313D
:100D8000C2F20001086040F26E0040F27201C2F24D
:100D90000000C2F2000100F07BF939E040F2CC31F2
:100DA00043F23332C2F20001C4F2172207E040F2EC
:100DB000CC314CF6CD42C2F20001C4F2142200F54F
:100DC000102000F56A500A6022E040F2CC31002287
:100DD000C2F20001C4F2182215E040F2CC314CF608
:100DE000CD42C2F20001C4F2142200F560300A6064
:100DF00000F5E9400CE040F2CC3146F26662C2F206
:100E00000001C4F2162200F590100A6000F5EA40D5
:100E100040F23451C2F20001086080BD40F2C3408C
:100E2000C2F20000017881F00102027040F60C402D
:100E3000C4F201000268002922F4807308BF42F462
:100E4000807303607047000080B540F27A00C2F200
:100E50000000017881F00102027040F25840C2F2B5
:100E6000000011B100F042F880BD00F047F880BDED
:100E700040F27B00C2F20000017881F001010170B4
:100E800040F26C00C2F200000170704780B582B081
:100E900040F2C841C2F200010A7840F60000C4F2F4
:100EA000010082F001030B702AB14FF0020C0F21F8
:100EB0000222012304E04FF0030C0F210322002340
:100EC000CDF800C000F0B4FC02B080BD80B540F2A7
:100ED000760040F28001C2F20000C2F2000101F08F
:100EE000EFFA80BD80B501F001FE80BD80B5002223
:100EF000017AC272002200F095F880BD80B5082208
:100F0000017AC272002200F08DF880BD80B5012107
:100F1000002200F087F80520FFF7E4FF80BD000005
:100F200010B5044602982160A07140F60640C2F652
:100F30001400C4F807000820E072322022716371A7
:100F4000FFF7D0FF20463321002200F06BF8052088
:100F5000FFF7C8FF20463221002200F063F8052089
:100F6000FFF7C0FF20462021002200F05BF805209B
:100F7000FFF7B8FFE1792046002200F053F8217A0C
:100F80002046002200F04EF8617A2046002200F050
:100F900049F8A17A2046002200F044F820460121B9
:100FA000002200F03FF820460221002200F03AF82B
:100FB00010BD000080B5437990F806C08B4298BF01
:100FC000591E944598BFACF10102D2B2032A05D84C
:100FD000DFE802F009020608403104E0002102E0E7
:100FE000143100E0543141F08001C9B2002200F018
:100FF00019F880BD80B5012200F014F880BD000012
:10100000B0B50A78002A08BFB0BD04464D1E00BF27
:10101000D1B22046FFF7EEFFAA780135002AF7D1BA
:10102000B0BD000070B582B004460B01E67A01F055
:10103000F0000833002E14BF08300B01511EB1FA26
:1010400081F1490908441944021D8DF80500081D65
:101050008DF806000A208DF804208DF8071001F0A5
:1010600051FD206821790022012301F0A3FD2068B1
:1010700001A94D1E042600BF15F8011F01F0F6FD61
:101080002068013EF8D101F0D1FD02B070BD000032
:101090002DE9F04381B04688814640F2E5708642F2
:1010A000884614D3B9F80260002740F2E47400BF08
:1010B000A0B200F085FD013400284FF4B770A1B252
:1010C00008BF40F26D10B1420744F1D300E00027A1
:1010D00099F8010002280CD399F80140012500BFBE
:1010E000E8B2314600F0B6FB0135E9B2A14207444F
:1010F000F6D399F8000040F2A3213844484398F809
:10110000001098F801204FF46167794398F8023095
:1011100001EBC010C2EB021100EB81001844A0F5F6
:101120008030A0F5A34001B0BDE8F08370B588B071
:1011300040F25846C2F200060569304600210122FD
:10114000FFF738FF40F2B440C2F2000041782A684D
:10115000037844880DF10B05009121A128460194E4
:10116000FFF764F830462946FFF74AFF40F2B844DB
:10117000C2F200042078022200EB40000A30C1B223
:101180003046FFF717FF45F6C251C0F60001304662
:10119000FFF736FF207802280FD140F25844C2F200
:1011A0000004204612210222FFF704FF45F6C25137
:1011B000C0F600012046FFF723FF40F25844C2F278
:1011C0000004204600210322FFF7F4FE45F61251E9
:1011D000C0F600012046FFF713FF08B070BD00BF46
:1011E000257320253032642F253032642F2530348A
:1011F000640000002DE9F04740F25844C2F20004B8
:101200002046FFF783FE204600210022FFF7D2FE92
:1012100040F2B048C2F20008D8F800000168204649
:10122000FFF7EEFE40F2C940C2F20000007801284C
:101230002ED058BBD8F8000047683FB340F258445E
:1012400045F6A75945F6255A0126C2F20004C0F614
:101250000009C0F6000A00BFF5B2204600212A4668
:10126000FFF7A8FED8F80000514680688742204664
:1012700008BF4946FFF7C4FE39682046FFF7C0FEA5
:10128000022D03D8BF680136002FE5D1BDE8F087F5
:1012900040F2C440C2F2000000680179042909D07C
:1012A00003290BD0022918BFBDE8F08700F00AF827
:1012B000BDE8F087FFF73AFFBDE8F08700F042F89D
:1012C000BDE8F08770B588B040F25844C2F200041F
:1012D0000569204600210122FFF76CFE40F2BC4068
:1012E000C2F2000000682D6803F070FF0DF10B06DC
:1012F0000B4600900AA130462A460193FEF796FF5E
:1013000020463146FFF77CFE204600210322FFF7EE
:1013100051FE07A12046FFF773FE08B070BD00BF65
:1013200025732025322E3166206F432020200000B7
:1013300055502F444E3A4348472C2053454C3A537E
:101340004156450070B588B040F25846C2F20006DA
:101350000569304600210122FFF72CFE40F2C04013
:10136000C2F2000041782A68037884780DF10B05F9
:10137000009115A128460194FEF758FF30462946F2
:10138000FFF73EFE40F2B840C2F2000000780222B1
:1013900000EB40000A30C1B23046FFF70BFE45F6C5
:1013A000C251C0F600013046FFF72AFE3046002148
:1013B0000322FFF7FFFD45F61251C0F6000130464B
:1013C000FFF71EFE08B070BD257320253032643A49
:1013D000253032643A2530326420200040F2144037
:1013E000C4F201000168C90708BF704740F2A74175
:1013F000C2F200010A7842F002020A70016841F06C
:10140000010101607047000040F21440C4F2010085
:101410000168890458BF704740F2A741C2F2000139
:101420000A7842F008020A70016841F40051016034
:101430007047000040F21440C4F2010001688907BF
:1014400058BF704740F2A741C2F200010A7842F04B
:1014500004020A70016841F0020101607047000057
:1014600040F21440C4F201000168490758BF7047B8
:1014700040F2A741C2F200010A7842F001020A706C
:10148000016841F0040101607047000040F214401F
:10149000C4F201000168090758BF704740F2A74134
:1014A000C2F200010A7842F010020A70016841F0AD
:1014B000080101607047000040F21440C4F20100CE
:1014C0000168890558BF704740F23C51C2F20001E3
:1014D00001220A704FF4007101607047F0B583B0CB
:1014E00040F60005C4F2010505F50060019040F2E8
:1014F0000D10C0F2060001AC0290204600F038F852
:1015000000208DF808000126204601958DF80B601B
:1015100000F02EF88DF808600226204601958DF81F
:101520000B6000F025F8204601958DF8086000F06A
:101530001FF803260427204601958DF808608DF8D2
:101540000B7000F015F8204601958DF808608DF8B5
:101550000B7000F00DF805F5806001900920C0F2D5
:1015600002300290204600F003F803B0F0BD000006
:101570002DE9F04381B00446006840F2084901219A
:10158000C4F201094FF0010800F07EF841F21800A2
:10159000C4F20200016841F6000741F00101016058
:1015A00022682079A2F18043A3F58433C4F20107B5
:1015B000FF254FEAB326BA4208BF0425042E38BFE0
:1015C0004FEAB32500F0FC034FF600470C214B44D3
:1015D000CFF6FF7701EA80010F22DE598A4026EA22
:1015E0000202DA51DA5905FA01F11143D95159F8D9
:1015F000082C08FA00F10A4349F8082C6279022AFB
:1016000010D0012A1BD03ABBD9F800200A43C9F8F0
:10161000002040F20C42C4F20102136823EA0101E7
:10162000116019E0D9F800200A43C9F8002040F2FF
:101630000C42C4F201021368194311600CE040F23D
:101640000C42C4F2010213680B431360D9F8002066
:1016500022EA0101C9F8001028250A2838BF1725F9
:10166000052838BF851D01F0DBF9A179E27900F08A
:101670003BFC6CB20146204601F0E2F9204601F045
:10168000A7F901B0BDE8F083002939D0A0F180406E
:10169000A0F584304FEAB020042888BF7047DFE807
:1016A00000F0030C151E270041F21800C4F20200DE
:1016B000016841F004010160704741F21800C4F272
:1016C0000200016841F008010160704741F2180012
:1016D000C4F20200016841F010010160704741F25C
:1016E0001800C4F20200016841F020010160704757
:1016F00041F21800C4F20200016841F040010160AB
:1017000070470000F0B581B0044600680121FFF782
:10171000BBFFE6790022072E88BF012294F804C09F
:101720006FF01F03216803EB8603082EACF101055F
:101730004FF0000E38BFB300082D4FEA820208D8E0
:10174000DFE805F0402105090D111523340094F858
:1017500005E0002539E094F805E0042535E094F82B
:1017600005E0082531E094F805E00C252DE040F275
:101770000847C4F2010701203D68B04085433D6041
:101780007D682843786008251DE040F20845C4F2D2
:1017900001054FF0010E2F680EFA06F007432F6087
:1017A0006F6827EA0000686008250CE040F20847EF
:1017B000C4F2010701203D68B04005433D607D68EB
:1017C0002843786004254FF0000E45EA0E000F27ED
:1017D0008D589F4025EA07078F508F58984038430F
:1017E000BCF1080F885002D0BCF1020F11D1A279D0
:1017F000022A08D0012A0CD10120CA68B040104347
:10180000C86001B0F0BD0120CA68B04022EA000003
:10181000C86001B0F0BD00000123002A08BF4FF4EA
:101820008033026903FA01F111430161704700003E
:1018300080B582B0DDF810C0009068468DF80710C2
:101840008DF804208DF806308DF805C0FFF75AFF9B
:1018500002B080BD10B5044601380B2884BF0020BB
:1018600010BD022C06D1084600F0AAF900281CBFC2
:101870001D2010BD01A0005D10BD00BF001F1C1F7A
:101880001E1F1E1F1F1E1F1E1F00000040F2CC4007
:10189000C2F200000068704770B540F2C441C2F265
:1018A00000010968002908BF70BD0A79042A2BD0FD
:1018B000032A0FD0022A24D10E6940F2BC45002829
:1018C000C2F200053ED0012841D13069296803F0F9
:1018D000A9FC3BE0002864D001284BD0032810D19C
:1018E00040F2B840C2F2000001784AF6AB22013162
:1018F000CAF6AA22A1FB02235A0802EB4202891A65
:101900000170FFF777FC70BD40F2B4440028C2F2CA
:10191000000400F0978001285BD0032840F0B680D7
:1019200040F2B840C2F2000001784AF6AB22013121
:10193000CAF6AA22A1FB02235A0802EB4202891A24
:101940000170A3E03169286803F0ACFF2860F468F7
:101950002868214603F00EFD002808BF2C60B468FB
:101960002868214603F0FFFC002808BF2C60FFF721
:1019700041FC70BD40F2B841C2F2000191F9001083
:1019800002290CD849A252F821204BA3167853F80B
:101990002110731CB3FBF1F606FB11311170002806
:1019A000AFD140F2B840C2F20000007802281ED049
:1019B000012829D00028A4D140F2C040C2F2000082
:1019C00001784A1E002908BF17220270FFF712FC97
:1019D00070BD40F2B841C2F200010978022920D05E
:1019E000012928D069BB21780131217029E040F21A
:1019F000C040C2F2000081784A1E002908BF3B2285
:101A00008270FFF7F7FB70BD40F2C040C2F20000E9
:101A100041784A1E002908BF3B224270FFF7EAFBCB
:101A200070BD618840F632034A1C994288BF4FF46A
:101A3000FA62628005E061784A1C0B2988BF0122A6
:101A4000627018BB40F2B845C2F20005287848B968
:101A50002078012804D860786188FFF7FBFE00E059
:101A6000013820702878022808D001280ED160782B
:101A7000411E022838BF0C21617007E06088411EBA
:101A8000B0F5FA6F98BF40F63301618060786188E5
:101A9000FFF7E0FE2178814284BF01212170217887
:101AA000002908BF2070FFF7A5FB70BDC00400200F
:101AB000C1040020C2040020180000003C00000007
:101AC0003C0000002DE9F04381B0044641F21800CB
:101AD000C4F202009046026845F20043C4F20003DB
:101AE0009C4242F00102026008D045F60002C4F2B6
:101AF000000294421BD14FF4800201E04FF4001227
:101B0000436845F200151A43C0F22525426089B1A9
:101B1000022913D0012926D10420C4F20100016852
:101B20004FF0090941F002010160082109E0002598
:101B30000029EDD14FF00709062102E04FF00B0913
:101B40000A2140F60047C4F2010702263846062261
:101B500000230096FFF76CFE384649460622002314
:101B60000096FFF765FE20882080A08820F03F00C7
:101B7000A0804DF68360C4F21B30A5FB0001A08855
:101B800040EA9140A080A08B20F0FF00A0834FEAA4
:101B90004800B5FBF0F0A28B1043A083208C0122FB
:101BA00020F03F002084208C02EB914108432084E8
:101BB000208840F00100208001B0BDE8F0830000E3
:101BC00048F21F51C5F2EB118207A0FB012107D19A
:101BD0004909642201FB120100291CBF0120704742
:101BE00045F62941CCF28F2148434DF20B724FEA62
:101BF0003011C0F2A3020020914238BF012070478B
:101C0000B0B582B0002040F610048DF807008DF8C2
:101C10000600C4F201044FF4801040F20005206079
:101C2000C2F2000528680DF10701012200F030FD25
:101C300028680DF10601012200F0A2FC10202060AE
:101C40009DF8060002B0B0BD70B582B040F6100439
:101C50000125C4F201044FF4801040F200068DF813
:101C600007502060C2F2000630680DF10701012222
:101C700000F00EFD30686946072200F081FC10205C
:101C80002060BDF800009DF8061000BA4FEA5044ED
:101C900049B140F27046C2F200060320357000F0F0
:101CA000D9F800203070204602F0F4FE44F2000320
:101CB000C4F27803002202F079FF00224FF07C5337
:101CC00002F074FF00F002F802B070BDF0B581B010
:101CD0000023C4F2590300220C46054603F027FBFB
:101CE000002878D00023C4F214032846214600229D
:101CF00001F0E0FE46F6DE4248F6E353CEF23E62E5
:101D0000C3F6F25302F052FF002306460F46C4F218
:101D1000100328462146002201F0CCFE4AF63A6222
:101D20004CF65203C5F65052CBF6716302F03EFFFB
:101D300002460B463046394602F016FC00230646A2
:101D40000F46C4F2080328462146002201F0B2FEE5
:101D500044F67F324CF60B03C6F66662CBF6886318
:101D600002F024FF02460B463046394602F0FCFBE7
:101D700006460F46284621462A46234602F016FF0D
:101D800046F2DE3240F2E113C9F68B12C3F66373FA
:101D900002F00CFF32463B4602F0E6FB45F6BB5232
:101DA0004DF2E46306460F46C6F22562C4F2010313
:101DB0002846214602F0FAFE32463B4602F0D4FBAA
:101DC00044F61A7244F2E823C4F6B702CCF26E036A
:101DD00002F0CAFB35E00023CCF259032846214625
:101DE000002202F07DFC0023C3F6F073002202F013
:101DF000BBFB4CF68864CEF6196446F2AF03C3F61B
:101E0000C363224602F0D2FE42F6D80240F24C43AF
:101E1000CDF6C972C3F6F06302F0A6FB02F036FB02
:101E200046F21C4240F22623C4F6ED22CBF6707334
:101E300002F09AFB46F2AF03CBF6B363224602F000
:101E40004FFC40F26842C2F20002C2E9000101B058
:101E5000F0BD00002DE9F04381B040F2704102383E
:101E6000C2F200010022C0B20A7080210228ADF83F
:101E7000021008D84DF2C331C000C0F2C30121FAEC
:101E800000F08DF8030040F61005C4F201054FF490
:101E9000801840F20009C5F80080C2F20009D9F8A4
:101EA00000000DF102042146022200F0F1FB102691
:101EB00000272E600CE000BFC5F80080D9F80000B4
:101EC00021460222013700F0E3FB642F2E6007D089
:101ED000FFF796FED128EFD1FFF792FEC128EBD194
:101EE00001B0BDE8F083000000F0070080F00703B8
:101EF000042B28BF04234FF0FF3C03380CFA03F3F4
:101F000038BF0020994381400CFA00F022EA00001B
:101F10000843704700F0070080F00703042B28BF38
:101F200004234FF0FF3C03380CFA03F338BF0020C2
:101F3000994381400CFA00F022EA00000843704700
:101F400070B514460D46064600F072FD294622463D
:101F5000FFF7E0FF0146304600F084FD304600F018
:101F600047FD70BD2DE9F04F81B0FFF78FFC40F2C7
:101F70002C54C2F20004216840F2CC37401A40F2DF
:101F8000DC5140F284498842C2F20007C2F20009E3
:101F9000C0F0A58040F28C46C2F20006306840F2E4
:101FA0003058C2F20008C8F80000FFF76FFC40F29A
:101FB00090413A68C2F2000109682060104603F0BF
:101FC00071FC40F2784AC2F2000A0446CAF80000E6
:101FD00003F0FCF846F26663C4F210034FF0663279
:101FE00003F09EF940F27C470028C2F2000704BFCC
:101FF0000020386040F21430C2F200000168204630
:1020000003F084FB40F2103140F2804BC2F2000139
:10201000C2F2000B09683D68CBF80000204603F0CF
:1020200075FB0146284603F0FDF83860FFF72EFCEB
:10203000D8F800103060401A02F02CFD44F2000382
:10204000C4F28F03002202F04BFB02F05BFA05465C
:1020500040F20C30C2F2000040F2D048066840F274
:10206000A040DAF80040C2F20008C2F20000D8F83E
:1020700000100560204603F015FC0146304603F0D1
:1020800045FB294603F090F9054640F27442DBF81F
:1020900000003968C2F20002156003F0C3F801467F
:1020A000284603F0BFF80021054603F06AF94BF219
:1020B0000001002818BF0025C4F20161284603F082
:1020C0004BF940F2CC37C2F2000700281CBF4BF29C
:1020D0000005C4F20165C9F80050C8F8004040F29C
:1020E0003C5AC2F2000A9AF8000000285DD0D9F8E4
:1020F00000104BF2000040F60008C4F20160C4F288
:10210000010803F0CFFB03F061FA00F0FBFC40F2A2
:102110008849C2F20009D9F8000003F057F80546D3
:1021200038680E4603F052F846F26663CBF6F67353
:102130004FF0663202F018FA40F2A444C2F20004F2
:10214000227840F2A54BC2F2000B8AB92A463346E8
:1021500003F0D8F860B940460F210022FFF75CFB7E
:1021600041F2883000F0C2FC012020708BF80000A2
:10217000D9F80000396803F004F99BF8001081F0E9
:10218000010150EA010240464FF00F0118BF012241
:10219000FFF742FB642000F0B5FC40460F2100220F
:1021A0000024FFF739FB8AF8004001B0BDE8F08F4A
:1021B00010B540F2A744C2F200042078800719D578
:1021C000207800F0FD00207040F2C940C2F200000B
:1021D000007818B10020FFF75FFB09E040F2B04043
:1021E000C2F20000006881688968002918BF816018
:1021F000FFF700F82078C00719D0207800F0FE0023
:10220000207040F2C940C2F20000007818B10120ED
:10221000FFF742FB09E040F2B040C2F20000006864
:102220008168C968002918BF8160FEF7E3FF207844
:10223000C0066DD5207840F2C94300F0EF00207051
:10224000C2F20003187818B10320FFF725FB5DE008
:1022500040F2B04CC2F2000CDCF80000806801795A
:102260008A1E032A16D201221A7040F2C442C2F218
:102270000002042910601AD003292BD002293FD173
:1022800040F27C00C2F20000006840F2BC41C2F2A1
:1022900000011DE0012905D0C1BB00690068CCF830
:1022A000000033E0006988B3006880472EE040F208
:1022B000A841C2F20001096840F27602C2F20002AF
:1022C0001160006940F2B4414068C2F20001006848
:1022D000086015E040F2AC41C2F200018A7840F299
:1022E0008003C2F200039A70098840F2C04219804C
:1022F0000069C2F200024068018811808078907005
:1023000040F2B840C2F2000000210170FEF772FFF7
:10231000207840073BD5207840F2C94100F0FB000F
:102320002070C2F200010878012830D140F2C44C7C
:10233000C2F2000CDCF80020002013790870032B97
:102340000CD0022B14D140F2BC40C2F20000006855
:1023500040F27C01C2F20001086009E0106940F21D
:10236000C041C2F2000140688A7882700988018009
:10237000DCF800000179042907D1006940F2B4417A
:10238000C2F20001406809680160FEF733FF20785F
:10239000000758BF10BD207800F0F700207040F211
:1023A000C940C2F20000017831B1012901D10021F8
:1023B0000170FEF71FFF10BD40F2B040C2F20000F6
:1023C0000168C968002918BF0160FEF713FF10BD3E
:1023D00080B58C4642F61801C4F200010B888A8849
:1023E000014642EA0340624600F086F980BD0000E3
:1023F00080B542F60400C4F2000030F8041CC9079E
:102400001CBF01885FEAC17100D180BD018821F045
:102410000101018040F2A84040F2AC41C2F200004C
:10242000C2F20001FFF7D4FF80BD000080B541F289
:102430002001C4F2020151F8040C40F0C05041F8F0
:10244000040C47F20000C4F20000026842F48072FB
:102450000260086840F00100086000BF086880075B
:10246000FCD5086840F4807008600A6842F60400F1
:10247000C4F2000042F400420A6000BF01888906ED
:10248000FCD5018841F0100101800021818047F6D0
:10249000FF710181012120F8041C018821F0010154
:1024A0000180018821F01001018000BF01888906A8
:1024B000FCD503200F210022FFF742FD80BD000064
:1024C000B0B547F2000442F60405C4F20004C4F2B9
:1024D0000005FEF7DDFD216841F48071216000BF39
:1024E00029888906FCD5298841F010012980010C32
:1024F000A9822883288820F0100028802888800658
:10250000FCD5206820F480702060B0BD10B5044672
:102510000068012100F076F8627994F804C0032A7B
:102520004FEA8C0104D0022A08BF01F5004101E006
:1025300001F58061A279E37941EAC201227A41EA98
:10254000C321637A41EA42011943A27A4FF6FF534D
:102550000B402068012A08BF41F440730380B2FA9F
:1025600082F1002200234909BCF1010F08BF8B0052
:1025700083802277C4E90322C4E9052210BD00004C
:102580002DE9F04381B004460088400637D5154652
:102590006AB30E464FF0FF094FF6FF7812E000BF16
:1025A0002046022100F0F2FD20460121A4F80C9003
:1025B000012700F0EBFDA08930704FF0FF302D189F
:1025C0003E4414D020880005EAD5022D0FD32046C2
:1025D0000221022700F0DAFD20460121A4F80C8038
:1025E00000F0D4FDA08930806FF00100E7E72046BD
:1025F000022100F0CBFD00BF20890006FCD401B011
:10260000BDE8F08343F60002C4F20002012902F59E
:10261000784104D1884210D0904220D0704788423F
:1026200014D0904218BF704741F21800C4F2020063
:10263000416821F480414160704741F21800C4F2C2
:102640000200016841F480510160704741F21800B6
:10265000C4F20200016821F480510160704741F228
:102660001800C4F20200416841F4804141607047A3
:10267000012905D1018841F040010180704700BF68
:1026800001890906FCD4018821F0400101807047CE
:1026900070B582B00446008840062AD515460AB3B4
:1026A0000E4610E030784FF0FF31A08101200D443C
:1026B00006442046012100F069FDA089ADF806001E
:1026C000BDF8060075B12046022100F05FFD2088AC
:1026D0000005E7D5022D05D330886FF00101A081F8
:1026E0000220E4E72046022100F050FD2089000688
:1026F000FCD402B070BD00002DE9F04148F689031A
:10270000C8F688034BF2C535A0FB0376C9F2A215C3
:102710007709A0FB0554A7FB0335E30A4AF6AB246F
:10272000CAF6AA24A3FB044C44F20754CCF22E248C
:10273000A0FB04480C463901A1EB5611A0EB810027
:10274000907068090001A0EB5510A7EB8000507055
:102750004FEA1C1000EB4000A3EBC000107040F2E9
:10276000E4704FEA184640F2E475FFF729FA4FF497
:10277000B771002808BF40F26D11B1EB184F0ED8A9
:1027800040F2E4750135A8B2761AFFF719FA00286D
:102790004FF4B77108BF40F26D118E42F2D26580DE
:1027A000ADB2012029460127FFF754F8864209D32C
:1027B000012700BF0137361AF8B22946FFF74AF859
:1027C0008642F7D2701C67702070BDE8F08100006F
:1027D00080B500F001F880BD82B041F20400002114
:1027E000C4F202000191009150F8041C41F48031C0
:1027F00040F8041C50F8041C01F4003100910199C8
:1028000001310191009919B90199B1F5A06FF1D188
:1028100050F8041C890354BF002101210091009944
:10282000012936D142F20001C4F202010A6842F0E5
:1028300010020A600A6822F007020A600A6842F081
:1028400002020A600168016001680160016841F4E8
:1028500080610160016821F47C110160016841F42C
:10286000E811016050F8041C41F0807140F8041C2C
:1028700050F8041C8901FBD5016821F003010160B7
:10288000016841F002010160016801F00C010829B2
:10289000FAD102B07047000040F2CC40C2F2000012
:1028A000016801310160704780B540F20400C2F256
:1028B0000000006844F6D351C1F26201A0FB01019F
:1028C0004FF0FF3000EB91104EF21001CEF20001FC
:1028D0004860002088600868012240F00700086016
:1028E0004FF0FF300221FFF72BFB80BD80B541F296
:1028F0000000C4F202000168002241F00101016001
:102900004168CFF6FF021140416001684FF6FF7247
:10291000CFF6F66211400160016821F48021016068
:10292000416821F4FE0141604FF41F018160FFF70F
:102930004FFF4EF60850CEF200004FF000610160EC
:1029400080BD000010B51024C4F200042088C00728
:1029500008BF10BD40F26C00C2F20000007810B158
:1029600000F048FA07E040F60C40C4F201000168AC
:1029700041F470410160208820F00100208010BDEA
:1029800080B541F21C00C4F20200016841F001016F
:1029900001600C20C4F200004721818340F2CF7116
:1029A0000184018841F0010101804FF080410A88D3
:1029B00042F080020A80828822F001028280088828
:1029C00040F00100088000F05FF800F021F880BDC1
:1029D000002848BF704700F01F01012202FA01F1F0
:1029E0004EF200124009CEF2000242F82010704769
:1029F000002848BF704700F01F01012202FA01F1D0
:102A00004EF200124009CEF2000242F82010704748
:102A10004EF20010CEF200004FF08051016070477E
:102A20004EF60C50CEF200000068C0F30220704752
:102A30004EF60C50CEF200000068C0F30220704742
:102A40004EF6145300F00F02CEF2000309011A44AF
:102A500000F16043B0F1FF3FC8BF03F5644211705D
:102A6000704700004EF6145300F00F02CEF2000340
:102A700009011A4400F16043B0F1FF3FC8BF03F5FC
:102A800064421170704700004EF21C40CEF200000C
:102A9000102101707047000045F21840C4F2000098
:102AA00001888907FCD4704742F61800C4F2000080
:102AB0000188808840F2345340EA014140F2A64048
:102AC000C2F200000078C2F200031B68002840F246
:102AD000984218BF01208B424FF00003C2F200025F
:102AE00028BF0123184011607047000010B504464C
:102AF000FEF7CCFE044400BFFEF7C8FEA042FBD1A7
:102B000010BD000010B550B34EF2180CCEF2000C00
:102B10005CF8081CC90722D040F20401C2F200018F
:102B200009684DF68362C4F21B32A1FB0212910CBC
:102B300048435CF804ECDCF80020002808BF10BD16
:102B4000002100BFDCF8003000249A4238BF0EF1AB
:102B50000104E41A1144214481421A46F2D310BD03
:102B6000B0B540F2D441C2F200010A6846F267658E
:102B7000531CC6F2666583FB055440F2DC45C2F285
:102B8000000545F82200E01000EBD47000EB800057
:102B9000A3EB800008602C1F0020142554F8041FAC
:102BA00002F040FB013DF9D10021C4F2A01102F076
:102BB000FBFBB0BD2DE9F04149F280681F46154688
:102BC0000E460446C0F29808FFF766FF2088002FE3
:102BD00040F4806108BF20F480612180208840F4A7
:102BE0008070208040F23850C2F20000C0F80080AF
:102BF000A18AC90706D1016801390160F8D1002016
:102C0000BDE8F08105EB46012182C0F8008000BFDD
:102C1000A18A890706D4016801390160F8D1002032
:102C2000BDE8F081208B0120BDE8F08145F2004035
:102C3000C4F20000018849F2806241F40071018011
:102C400040F23851C2F20001C0F298020A6000BF9F
:102C5000028BD20704BF022070470A68531E002A65
:102C60000B6004BF00207047F2E7000049F2806C5F
:102C700040F23852C0F2980CC2F20002C2F800C012
:102C8000838A1B0606D41368013B136004BF00202F
:102C90007047F5E70182C2F800C000BF818A49078A
:102CA00044BF0320704711680139116004BF002040
:102CB0007047F3E7B0B582B00420C4F201000168A8
:102CC00040F6004441F00071C4F2010401600225A5
:102CD00020460C21032200230095FEF7A9FD204683
:102CE0000D21032200230095FEF7A2FD20460E21B0
:102CF000032200230095FEF79BFD20460F210322AF
:102D000000230095FEF794FD2046002103220023B6
:102D10000095FEF78DFD204601210322002300953A
:102D2000FEF786FD20460221032200230095FEF7D0
:102D30007FFD20460321032200230095FEF778FD46
:102D400020460421032200230095FEF771FD204652
:102D50000521032200230095FEF76AFD2046062187
:102D6000032200230095FEF763FD2046072103227E
:102D700000230095FEF75CFD20460C210022FEF7A3
:102D80004BFD20460D210022FEF746FD20460E2178
:102D90000022FEF741FD20460F210022FEF73CFDF8
:102DA000204600210122FEF737FD204601210022A6
:102DB000FEF732FD204602210122FEF72DFD2046BE
:102DC00003210122FEF728FD204604210122FEF7FF
:102DD00023FD204605210122FEF71EFD2046062187
:102DE0000022FEF719FD204607210122FEF714FDFF
:102DF00002B0B0BD10B540F29444C2F20004207895
:102E000040F29C41013020702078C2F20001042879
:102E100024BF002020702078085C00F02FF8207874
:102E20000130C0B200F002F810BD0000B0B540F6AD
:102E30000044C4F20104054620460C210122FEF79D
:102E4000EBFC20460D210122FEF7E6FC20460E2178
:102E50000122FEF7E1FC20460F210122FEF7DCFCF7
:102E6000681EC0B2032888BFB0BD05F10B00C1B217
:102E700020460022FEF7D0FCB0BD0000B0B540F601
:102E80000045C4F20105044600F001022846002175
:102E9000FEF7C2FCC4F3400228460121FEF7BCFC49
:102EA000C4F3800228460221FEF7B6FCC4F3C00238
:102EB00028460321FEF7B0FCC4F300122846042183
:102EC000FEF7AAFCC4F3401228460521FEF7A4FC35
:102ED000C4F3801228460621FEF79EFCE20928462C
:102EE0000721FEF799FCB0BDB0B5044602F052FBD5
:102EF000054602F08BFB0146204602F0D3FC002180
:102F0000C4F2201102F002FC02F044FB4CF6CD4268
:102F100025EAE571CCF6CC426329A8BF6321A1FB69
:102F20000223DA0820EAE07002EB82030928A8BF36
:102F30000920A1EB430145F6BC33C0F60003C0B243
:102F400040F29C4501F00F01185CC2F20005595C8B
:102F50009A5CA870C620E87001F07F002A70687043
:102F6000B0BD000082B0FFF79FFC00F0CFF8032057
:102F70004FF00308FEF76EFF40F60005C4F20105AE
:102F8000A5F5304448F2A062C0F2010220460221B9
:102F90000227FEF797FD05F58066304608210322DB
:102FA00000230097FEF744FC05F500600D21022286
:102FB00001230097FEF73CFC284600210222012352
:102FC0000097FEF735FC28460121022201230097D5
:102FD000FEF72EFC28460221022201230097FEF76D
:102FE00027FC28460321022201230097FEF720FC3C
:102FF00028460B21032201230097FEF719FC2846DF
:103000000F2103220123CDF80080FEF711FC30468A
:103010000921022201230097FEF70AFCFEF75EFA5F
:1030200040F258400427C2F2000021462722142310
:103030000097FDF775FF4FF4FA70FFF757FDFFF7A4
:1030400039FEFFF79DFC40F2B04040F26C31C2F215
:103050000000C2F200010160FEF7CCF8FEF7F4FDBB
:1030600001F050FA40F29041C2F200010860FFF70F
:10307000DDF942F61800C4F200000188808840EAB9
:10308000014048B940F2760040F28001C2F20000EF
:10309000C2F20001FFF714FA40F2A84040F2AC413E
:1030A000C2F20000C2F20001FFF792F940F2884438
:1030B000C2F20004FEF7C8FD01F024FA206000F01F
:1030C00069F8FFF7F1FC002818BFFEF74BFFFFF788
:1030D0006FF8EFE780B50021C4F2C82102F016FBBB
:1030E00002F074F80023C3F6E073002201F03CFA0A
:1030F00001F08AFC01F0B7FC0023C4F2590300225E
:1031000001F0EEFA01F0FEF980BD0000B0B58AB022
:1031100040F60004C4F201040325204605210522DF
:1031200000230095FEF784FB20460621052200239C
:103130000095FEF77DFB2046072105220023009520
:10314000FEF776FB20460421032200230095FEF7BC
:103150006FFBE06840F01000E06004F52050029042
:1031600040F20110C0F2030003904FF48070ADF8FC
:10317000100001208DF8120002A8FFF7C7F902988D
:103180000121FFF775FA0AB0B0BD000002890A42BA
:10319000FCD0704770B5FFF7E3FCFFF79BFF40F2F0
:1031A0009044C2F200042060FEF770FB40F2D84663
:1031B000C2F200063168401AB0F5FA7F20D3FEF75C
:1031C00065FB40F218352468C2F2000529683060BA
:1031D000204602F067FB20F0004001F0F7FF49F6BF
:1031E0009A1249F69913C9F69912C3F6B97302F007
:1031F0009EF8002818BF70BD20462C60FFF774FEB3
:1032000070BD5FEA400C08BF91F0000F4FEA8C23BD
:103210004FEAC12243EA51514FEA1C5018BF00F552
:10322000F0404FEA300018BF41F000415FEA6C5CAB
:1032300000F02980BCF1FF3F08BF40F0804070479C
:10324000130C06BF12044FF0100C4FF0000C130EBD
:1032500004BF12020CF1080C130F04BF12010CF191
:10326000040C930F04BF92000CF1020CD30F04BFA7
:1032700052000CF1010C11464FF00002A0F11F00AA
:10328000A0EB0C00704711F0004F08BF704731F001
:1032900000413FF4D5AF0B0C06BF09044FF0100CF2
:1032A0004FF0000C0B0E04BF09020CF1080C0B0FC1
:1032B00004BF09010CF1040C8B0F04BF89000CF151
:1032C000020CCB0F04BF49000CF1010CCCF1200320
:1032D00022FA03F341EA030102FA0CF2A0EB0C001C
:1032E00000F10100704723F07F4720F07F4C80EA17
:1032F000030000F00040ACEB070303F57C5303F13F
:10330000FF032DE9804909B44FEA144324EA034836
:103310004FEA154B25EA0B4E0FF2042606EB132756
:103320003E7803FB0667C7F5000707FB06F64FEA82
:10333000D64606F102064FEA543707FB066CCCF17D
:10334000005C4FEA1C472CEA074C0CFB06F507FB18
:1033500006F404EB15464FEA961649085FEA320276
:1033600034BF00204FF000404FEAD13706FB07FC86
:103370004FEA1C4C0CFB0BF7D21B03FB0CF761EB69
:1033800007010CFB0EF7B0EB074072EB17420CFB8A
:1033900008F734BFA2EB0742B2EB074261EB1741DB
:1033A0004FEA0C444FEA910706FB07FC4FEA1C4C1E
:1033B0000CFB0BF7B0EBC74072EB573203FB0CF77B
:1033C00034BFA2EBC742B2EBC74261EB57310CFBF3
:1033D0000EF7B0EBC70072EB57720CFB08F734BF67
:1033E000A2EBC702B2EBC70261EB57714FEA8161F2
:1033F00041EA92114FEA826242EA90124FEA8060FB
:1034000004EBCC04039F4FEAD13706FB07FC4FEADD
:103410001C4C0CFB0BF7D21B03FB0CF761EB0701F9
:103420000CFB0EF7B0EB074072EB17420CFB08F7F2
:1034300034BFA2EB0742B2EB074261EB17414FEA00
:103440008C5504EB9C244FEA910706FB07FC4FEADE
:103450001C4C0CFB0BF7B0EBC74072EB573203FB75
:103460000CF734BFA2EBC742B2EBC74261EB573156
:103470000CFB0EF7B0EBC70072EB57720CFB08F7B2
:1034800034BFA2EBC702B2EBC70261EB57714FEA40
:10349000816141EA92114FEA826242EA90124FEA58
:1034A000806015EB4C2544F100044FEAD13706FB50
:1034B00007FC4FEA1C4C0CFB0BF7D21B03FB0CF771
:1034C00061EB07010CFB0EF7B0EB074072EB174204
:1034D0000CFB08F734BFA2EB0742B2EB074261EBEB
:1034E00017414FEA813141EA92414FEA823242EA82
:1034F00090424FEA80304FEA0C7615EB1C1544F1F0
:10350000000448EA03434EEA0B484FF0000EB2EBCA
:10351000080C71EB030724BF624639464EEB0E0ED2
:103520004FF0000B0018524149414BEB0B0BB2EB33
:10353000080C71EB03077BF1000B24BF6246394690
:103540004EEB0E0E4FF0000B0018524149414BEB71
:103550000B0BB2EB080C71EB03077BF1000B24BFE4
:10356000624639464EEB0E0E51EA020718BF46F08E
:10357000010616EB0E7655F1000254F1000103D559
:10358000BDE88901BDE80088BDE88901BDE80048C3
:10359000B619524141EB0101A3F10103704780804C
:1035A0007F7E7D7C7B7A797877767675747372719D
:1035B00071706F6E6E6D6C6C6B6A6A696868676655
:1035C00066656464636362616160605F5F5E5E5DE7
:1035D0005D5C5C5B5B5A5A5959585857575656555B
:1035E00055555454535352525251515050504F4FBD
:1035F0004F4E4E4D4D4D4C4C4C4B4B4B4A4A4A490D
:10360000494948484847474747464646454545444F
:1036100044444443434343424242424141419C4625
:10362000002B30D477002BD04FEA37071CB503B4FA
:103630004FF010004FF01001BAF1000F06D0BCF1AE
:10364000000FDCBF40F0080040F008014FF0000020
:103650000FBCBDE810400BF1010BBBF1010F08BF1F
:103660005FEA170722BF12F1010211F101014FF0C9
:10367000004143F1000300F0004043EA00007047BE
:10368000F9D35708D0E746EA06464FEA164613F143
:10369000400F1FDD13F1200FDFBF16430A46002144
:1036A00020335B42BED0C3F1200746EA06464FEA0C
:1036B000164602FA07F746EA070622FA03F2C3F1B2
:1036C000200701FA07F742EA070221FA03F14FF057
:1036D0000003A7E746EA020646EA06464FEA164610
:1036E00046EA0106BCBF46EA0646360C4FF0000328
:1036F0004FF000024FF0000194E72DE9804C70B4C8
:103700009A46934691E8380007C831EA400C48BF12
:1037100034EA430C03D5FFF7E6FDFFF780FFF0BC6A
:10372000BDE8008C2DE9804C70B49A46934691E830
:10373000380007C810F0804F08BF13F0804F03D146
:1037400000F005F8FFF76BFFF0BCBDE8008C20F03F
:103750007F4723F07F4C80EA030000F0004007EB36
:103760000C03A3F57C53A3F1FE0392F0000F00F0CD
:10377000B38095F0000F00F077802DE901494FEA02
:10378000114021EA00484FEA144624EA064700FBAC
:1037900006FC08FB06F607FB08F818EB06484CEB9E
:1037A000164C00FB07F718EB07484CEB17404FEAA5
:1037B000124B22EA0B4E4FEA154625EA06470BFB51
:1037C00006FC0EFB06F607FB0EFE1EEB064E4CEB50
:1037D000164C0BFB07F71EEB074E4CEB174B18EB89
:1037E0000B0840F1000018EB0E0B58EB000840F1FD
:1037F00000008F1A4FF000014FF000063CBFC94394
:10380000661B14BFB5EB040C00213CBFC943F61B7B
:103810004FEA174427EA04454FEA1C472CEA074CB5
:1038200004FB076205FB07F70CFB05F616EB0746E2
:1038300042EB174204FB0CFC16EB0C4642EB1C421D
:103840001BEB060658EB020241414EEA8E0E46EA99
:103850009E0601D5BDE80189B619524141EB01012F
:10386000A3F10103BDE801894FEA144524EA0546A6
:103870004FEA114721EA074C05FB07F406FB07F75F
:103880000CFB06F111EB074144EB174405FB0CFC64
:1038900011EB0C4144EB1C444FEA124722EA074C5F
:1038A00005FB07F206FB07F70CFB06F616EB0746CF
:1038B00042EB174205FB0CFC16EB0C4642EB1C4599
:1038C0006A1854F1000148BF7047B619524141EBE4
:1038D0000101A3F10103704795F0000F37D04FEAC3
:1038E000114221EA02464FEA144724EA074C02FB40
:1038F00007F106FB07F70CFB06F414EB074441EB5A
:10390000174102FB0CFC14EB0C4441EB1C414FEA49
:10391000154725EA074C02FB07F506FB07F70CFBEA
:1039200006F616EB074645EB174502FB0CFC16EBBB
:103930000C4645EB1C42121951F1000148BF70477B
:10394000B619524141EB0101A3F1010370474FEA5F
:10395000144524EA05464FEA114721EA074C05FBC6
:1039600007F106FB07F70CFB06F212EB074241EBEF
:10397000174105FB0CFC12EB0C4251EB1C414FF0C4
:10398000000648BF7047921841EB0101A3F1010303
:103990007047490050EAC12018BF04204A0D18BFE3
:1039A00040F0010040F2FF72B2EB515F08BF40F0FF
:1039B0000200012808BF052070472DE9F0414F1E85
:1039C00000EBC7010446D1E9000115461E4637F059
:1039D00006020DD02A46334601F0E8F87F1E04EBBC
:1039E000C703D3E9002300F0BFFD37F00602F1D191
:1039F000022F25D0042F13D0062F18BFBDE8F08169
:103A00002A46334601F0D2F8D4E90A2300F0ACFD8F
:103A10002A46334601F0CAF8D4E9082300F0A4FD91
:103A20002A46334601F0C2F8D4E9062300F09CFD93
:103A30002A46334601F0BAF8D4E9042300F094FD95
:103A40002A46334601F0B2F8D4E9022300F08CFD97
:103A50002A46334601F0AAF8D4E90023BDE8F04134
:103A600000F082BD002213461046014900F038BE26
:103A70000000F03F00F078BD0022134610461146CA
:103A800000F02EBE40F2013200204FF0E04101F084
:103A9000B2BF0000024A0020110701F0ACBF0000D5
:103AA00001FDFFFF30380A2801D2012070470020B5
:103AB000704700002DE9F04D1D460C4698B01746A2
:103AC00021F0004123F00043002814BF4FF0010C07
:103AD0004FF0000C0CEB440CFE4A0CEB02064FEAD4
:103AE000620C66452BD33E0018BF012606EB450647
:103AF0001644F94A964222D3F84A53EA070C02D0F8
:103B0000944205D148B918B000201146BDE8F08DA7
:103B1000002808BF4FF0000C01D04FF0010C0CEB57
:103B2000440212F5001F0AD8002F14BF4FF0010CF9
:103B30004FF0000C0CEB450212F5001F07D918B02E
:103B40003A462B462146BDE8F04DFFF793BF0022D1
:103B5000DFF88CA3002CB8BF534526DADFF884C306
:103B60006345A8BF022220DADFF870C39C451CDC45
:103B7000DFF874C30CEB235CBCF1140F08DDCCF14F
:103B8000340627FA06FC0CFA06F6BE420DD108E010
:103B90005FB9CCF1140623FA06FC0CFA06F69E4235
:103BA00003D10CF00102C2F1020251EA000C19D15A
:103BB000002D17DA002C18BF022A01D0012A07D0E5
:103BC0000220FCF777FC18B0BDE8F04DFFF74ABFC4
:103BD0000220FCF76FFCFFF745FF18B081F00041B1
:103BE000BDE8F08DB7F1000C6CD1534525D104F13F
:103BF000804212F5801201BF00280020B74918B09A
:103C000008BFBDE8F08DB548884207DC002DA1BF94
:103C10006046294618B0BDE8F08D07E0281E05DA99
:103C200080F0004118B06046BDE8F08DAF4979449E
:103C3000D1E9000118B0BDE8F08DDFF8A0C26345FE
:103C400025D1002D1FDA19B1514512D1D8B909E09B
:103C5000002840F0EC82A24A214618B062F31E010F
:103C6000BDE8F08D0020214618B060F31E01BDE8CC
:103C7000F08D08DA18B02346BDE8F04D024600206A
:103C8000614600F02DBD18B02146BDE8F08D5145CC
:103C900018DAB5F1804F0DD0A5F1005CBCF1FF5CE6
:103CA00010D1B4F1000C0DDB18B06146BDE8F04D49
:103CB00000F0ECBB234618B00246BDE8F04D1946B3
:103CC00000F074BF060024F0004C3BD1D9B151453F
:103CD00033D1002C06DD002DA1BF0020514618B0C5
:103CE000BDE8F08D002C01DD002D1BDB002C13DA6C
:103CF000002D11DB012A4FF0000014BF78497C49E8
:103D000018B0BDE8F08D022A18BF002C0AD0012A95
:103D100008D1002C06DA0AE0002CB8BF002D11DA19
:103D2000012A04D0002018B00146BDE8F08D18B07B
:103D300000204FF00041BDE8F08DA1F14050B0F1FE
:103D40007F601AD0012000EBE47050EA020421D019
:103D5000624C521E4FF0000B104304BF4FF0000B9B
:103D6000644C654883427CDD644A654893421FDDAC
:103D7000884217DB002D25DB37E0002C00DA4AB142
:103D8000022A0CBF01204FF0FF3018B0BDE8F04D03
:103D900000F069BE0120FCF78DFB18B0BDE8F04DC6
:103DA000FFF76ABE4D4A8A4202DC002D0ADC1CE0A5
:103DB000814202DA002D18DA04E0484B994220DDF6
:103DC000002D12DD0220FCF775FBFFF75BFE0546B8
:103DD0000E46002253465846214600F0E7FE18B032
:103DE00066F31E012846BDE8F08D0220FCF762FB59
:103DF000FFF750FE0A46214618B062F31E01BDE8E7
:103E0000F08D00223046614601F0F6F880460E46FD
:103E10006FF0010201F0EFFD4FF05532394B00F029
:103E2000F9FF4246334600F0C1FE0022364B00F057
:103E3000F1FF82464246334604911046194600F08F
:103E4000B5FE5246049B00F0B1FE8A4600904FF04A
:103E5000C0422E4B4046314600F0A8FE2C4A2B4B68
:103E600000E027E0CDE906015146009800F09EFEF3
:103E700082460191274A284B4046314600F096FE83
:103E80005246019B01F0B8F882460B460246059166
:103E9000DDE9060100F068FBDDE90623002688461F
:103EA000304601F0A9F85246059B00F0B3FF0246E8
:103EB00000F07EB90020B1F5801F07DA35223046C8
:103EC000614601F098FD06466FF0340000EB21508A
:103ED00024E00000FFFF1F00FFFF0F000000F03F85
:103EE0000000F07F0000404301FCFFFFEE1E0000D9
:103EF0000000F0FF0000F0BF0000E0410000F043D0
:103F0000FFFFEF3F5555D53F0000E03F4715F73F16
:103F1000FE822B6544DF5DF80BAE543EA0F2FF300D
:103F20000190C1F3130040F07F6141F040510291D4
:103F3000FE498842D8BF002004DDFD498142C8BF48
:103F4000012001DD0D9008E000200D900198401C3B
:103F500001900298A0F5801002900299F5487844EB
:103F60000B910D9900EBC100D0E900230F9330466F
:103F70000A920B9901F040F8CDE90601DDE90A212A
:103F800030460F9B00F0F0FA02460B460020EA494B
:103F900000F0A6FB059102460B460090DDE9060104
:103FA00000F004FE1490E5488A464FF0000878447B
:103FB0000299006812904FF0005040EA61010D989C
:103FC0000F9B01EB804000F5002109910A9A12989D
:103FD00001F012F832460B9B00F01CFF424653469C
:103FE00000F0E4FD0646029140465146099B129AB4
:103FF00000F0DCFDDDE9062300F00CFF3246029BF9
:1040000000F0FAFF059B009A00F0D0FD0091149A91
:10401000049053461046194600F0C8FD0646024675
:10402000C7480B46029106217844FFF7C6FCCDE94C
:104030000510029B32461046194600F0B7FDDDE937
:10404000053200F0B3FD0591064653464046194639
:10405000149A00F089FA009B049A00F0A7FD3246FA
:10406000059B00F081FACDE9051042465346104603
:10407000194600F09BFD0022B24B02910A9000F01D
:1040800073FADDE9053200F06FFA0E464246AD4B99
:10409000404600F0B1FF029B0A9A00F0ADFFDDE957
:1040A000053200F0B7FE424602910A9033461046B0
:1040B000514600F07BFDCDE906015346149A029962
:1040C0000A9800F073FD8A460290334642460099F2
:1040D000049800F06BFD5346029A00F045FA8246C0
:1040E0000B4602460591DDE9060100F03DFADDE9E7
:1040F000062300208846064600F07EFF5246059BB8
:1041000000F088FE824609914FF060428E4B3046A7
:10411000414600F04BFD049006918C4A8A4B504674
:10412000099900F043FD82460291894A894B304645
:10413000414600F03BFD5246029B00F015FA864BCB
:104140007B440D9A03EBC203D3E9002300F00CFA81
:104150000E900791019800F086FC0591DDE90613A9
:1041600082460E9A049800F0FFF97C4A7A440D9B2F
:1041700002EBC303D3E900230093029200F0F4F9A9
:104180005246059B00F0F0F900268846524630461C
:10419000059B00F031FF009B029A00F02DFF069B6B
:1041A000049A00F029FF079B0E9A00F033FE0246A6
:1041B00000200B4602903846294600F0F7FC824664
:1041C00001912B4638461946029A00F015FF3246F7
:1041D000434600F0EBFC5246019B00F0C5F9074650
:1041E0008A46324643462946029800F0DFFC0546DF
:1041F0000E463A46534600F0B7F9594A884691426E
:1042000021DBA8EB020353EA000210D12A46334611
:1042100000F0F2FECDE90401524A534B38465146B4
:1042200000F0A2F9DDE9042300F0BEFD21D2022056
:10423000FCF740F9FFF726FC0A46214618B062F366
:104240001E01BDE8F08D494B28F000429A4210D380
:10425000474A08EB020353EA00027FF4C6AD2A4640
:10426000334600F0C9FE3A46534600F09DFD7FF606
:10427000BCAD0022019228F000403E493E4A01EBCD
:104280002051824223DA481C4FF4801121FA00F0B9
:1042900040443A4AC0F30A517A44394BA1F2FF3103
:1042A000CB4020EA0303C0F3130040F48010C1F1B7
:1042B0001401C84012680190B8F1000FBCBF404221
:1042C00001902846314600F097FE05460E462A46E4
:1042D00033463846514600F047F94FF00008424651
:1042E000284B4046059100F061FCCDE90601264AC5
:1042F000264B4046059900F059FC009102902A4651
:1043000033464046059900F077FE3A46534600F0A2
:1043100081FD1F4A1F4B00F049FC009B029A00F0F0
:1043200023F90746884602460B4635E08E9803007F
:104330007AB60B00361B00000000F03F6E1B000039
:104340009C1A00000000084009C7EE3FFD033ADC5C
:10435000F5015B14E02F3EBE74190000381900000F
:1043600000009040FE822B654715973C00CC9040A2
:1043700000346F3F01FCFFFF0000E03F84180000A5
:10438000FFFF0F00432EE63F396CA80C615C20BE96
:10439000EF39FAFE422EE63FDDE9060100F0E4F8CF
:1043A000DDE9062305460E4600F026FE3A46434662
:1043B00000F030FD0F462A4633460090104619465D
:1043C00000F0F4FB824602462E4888460B46052143
:1043D0007844FFF7F2FA5246434600F0E7FB2A46DC
:1043E000334600F017FD80468A463B462846314654
:1043F000009A00F0DBFB3B46009A00F0B5F806910E
:10440000009000224FF080434046514600F0F4FDFA
:104410000F460C90424653462846314600F0C6FBF4
:104420003B460C9A00F05CF9069B009A00F0E4FD14
:104430002A46334600F0E0FD0022134B00F0EAFC70
:10444000054601980E4601EB00510815002810DCC6
:1044500028463146019A01F0CEFAFFF79AFA04286D
:1044600008BFFFF717FB28463146019A01F0C3FA4F
:1044700005460B4618B02A4658462146BDE8F04D81
:1044800000F094BB241700000000F03F2DE9F0413C
:1044900006460F4600F0CAFC041E0D4618BF012058
:1044A000284320F00040C0F17F6000F1E040C00FE1
:1044B0000ED0301C18BF0120384320F00040C0F15E
:1044C0007F6000F1E040C00F04BF0120FBF7F2FF66
:1044D00020462946BDE8F08110B500290AD00878A9
:1044E000002807D005487844FCF7B8FB002801D025
:1044F000002010BD0248784410BD0000AE19000035
:10450000A619000021F0004201F00043A2F1605220
:10451000B2F5801F28BFD2F17F6C0BD95FEA001C77
:1045200043EAC20242EB507018BF704728BF20F028
:1045300001007047B2F5801FBCBF184670474FEAB4
:10454000410C1CF5001F02D2084601F0A6B970B557
:1045500000F0D6FB00000089FFF7F6BF4FF00040E7
:10456000A0F580007047000010B591EA030F48BF26
:1045700083F0004300F14885841A71EB030C05D2E7
:10458000121943EB0C03001B61EB0C014FEA1154B1
:10459000A4EB135CDFF81CE11EEA430F18BF9EEA90
:1045A000445F73D021EA045123EA0E0343F48013DD
:1045B000DCF1200E32D322FA0CFE10EB0E0023FAAF
:1045C0000CFE41EB0E01CCF1200E03FA0EFE10EBB7
:1045D0000E00CCF1200E51F10001B1F5801F32D256
:1045E00001EB045112FA0EF2BDE8104058BF7047BB
:1045F000401C38BF5FEA420218BF7047002814BF52
:1046000020F0010041F100014FEA410313F5001FC2
:1046100038BF7047A1F1C04100F0C0BB012A43EB95
:104620000302ACF1200CDCF11F0E32BF4FF0000E84
:1046300023FA0CF310EB030041EB0451B4EB115FD0
:10464000D0D0A1EB045101F58011490801EB0451D0
:104650005FEA30000ED350F1000038BF12FA0EFEB0
:1046600008D1BDE81040C9E7401C38BF5FEA4202EC
:10467000CAD1C3E7BDE810404FEA410313F5001F5C
:1046800038BF7047A1F1C04100F088BB9EEA445F8B
:1046900008D011EA5E0FBDE8104004BF01F00041F0
:1046A00000207047BDE8104070B500F029FB00BF46
:1046B00064FBBE3E0000E0FF02494FF0000001F045
:1046C00068B900BF0000F87F491058BFC1F14041F0
:1046D0005B1058BFC3F140438B42EFF3008070473B
:1046E0002DE9C04130B4DFF8A0C23CEA111418BF74
:1046F0003CEA131400F0EC801CEA111481EA030573
:1047000044EAD57418BF1CEA131500F0C780A4EB67
:10471000050404F17F7404F500344FF0004545EAC8
:10472000C12145EAC32341EA505143EA52534FEABB
:10473000C0204FEAC222994208BF904200F09C80FC
:104740004FEA13650FF24016765D4FEA134506FBFC
:1047500005F7C7F1807706FB07F74FEAD737A7FBC6
:1047600003687642A7FB06CEC8F5803838BFA8F1AB
:10477000010807FB08E6A6FB028C4FF0000EE6FBE3
:1047800003CEDCF1000CCEF1004E38BFAEF1010ECD
:10479000A6FB0C584FF00007E6FB0E87A1FB08C6EE
:1047A000A0FB07CE16EB0E064FF0000545F1000505
:1047B000E1FB076515F1E04E7EBFA4F580345FEAAA
:1047C00046066D4116F1800745F100054FEA1727AF
:1047D00047EA05674FEA15254FEA0666A6F1DE4669
:1047E000B6F1805F1FD9384605EBC47124F0010C87
:1047F00001EB0C11BCF1FE6F02D8F0BCBDE80081EA
:1048000024425CBF01F5801E9EEAC47F02D4F0BC46
:10481000BDE80081244238D4A1F1C041F0BCBDE81C
:10482000004100F0BBBA4FEAD02040EA41504FEAC5
:10483000D1214FEAD22242EA43524FEAD323A7FBC7
:10484000028607FB036605FB02661EEA0E0F58BFD1
:10485000A6EB0056B6EB00564FEA520E4EEAC37E68
:1048600018EB0E0E56EB530EBDD518EB02085E4149
:104870007F1C55F10005B6E74FF480154FF0000797
:104880004FF000064FF00008ADE701F1C04101F024
:1048900000414FF00000F0BCBDE800810CEA1315A8
:1048A00011EA0C1F00D00CE013EA0C1F00F0258069
:1048B0004FF0000081EA030101F00041F0BCBDE8C7
:1048C0000081F0BCBDE8004181EA030100F066BA56
:1048D000F0BCBDE8004170B500F012FA097EFC3E64
:1048E00000F007B84FF0000081EA030101F0004139
:1048F000704781EA030100F051BAF0BCBDE8004105
:1049000022494FF000007047FFFDFBF9F7F5F4F284
:10491000F0EEEDEBE9E8E6E4E3E1E0DEDDDBDAD85A
:10492000D7D5D4D3D1D0CFCDCCCBCAC8C7C6C5C4B8
:10493000C2C1C0BFBEBDBCBBBAB9B8B7B6B5B4B3CF
:10494000B2B1B0AFAEADACABAAA9A8A8A7A6A5A4BA
:10495000A3A3A2A1A09F9F9E9D9C9C9B9A9999987E
:104960009797969595949393929191908F8F8E8E21
:104970008D8C8C8B8B8A89898888878786858584AE
:1049800084838382828181800000FF070000F87F9A
:1049900051EA030C17D41CF5801F58BFBCF5801FCB
:1049A00000F10680994218BF704708BF90427047D7
:1049B00007D711F5801F58BF13F5801F19D49942EE
:1049C0007047894270471CF5801F08D5BCF5801FD1
:1049D000F7D58B4218BF704708BF824270474FF42B
:1049E000001C1CEB410F38BF1CEB430F01D28B4264
:1049F000704770B500F084F9922449004FF00051DF
:104A00004FF08053FFF760BE4FEA41034FEA535324
:104A1000A3F58063D3F11E03C8BFD3F1210C0CDDD5
:104A20004FF0004242EAC12242EA505232FA03FCFD
:104A30008CEAE17CACEBE1707047102BC4BF002026
:104A4000704703F5787CBCF1FF3F04D06FF0004263
:104A500082EA2100704770B500F052F94992248033
:104A600000207047F2E710F0004248BF4042B0FA21
:104A700080F310FA03F10AD0C3F11D0303F580633C
:104A800002EB03524FEA415002EBD12170474FF045
:104A900000007047B0FA80F310FA03F10AD0C3F1B6
:104AA0001D0303F580634FEA03524FEA415002EBC6
:104AB000D12170474FF000007047000051EA030C0D
:104AC00017D41CF5801F58BFBCF5801F00F106806D
:104AD000994218BF704708BF9042704707D711F539
:104AE000801F58BF13F5801F19D49942704789421F
:104AF00070471CF5801F08D5BCF5801FF7D58B4289
:104B000018BF704708BF824270474FF4001C1CEB6F
:104B1000410F38BF1CEB430F01D28B42704770B579
:104B200000F0EEF8922449004FF080514FF000530E
:104B3000FFF7CABD51EA030C17D41CF5801F58BFFC
:104B4000BCF5801F00F10680994218BF704708BF6E
:104B50009042704707D711F5801F58BF13F5801F8B
:104B600019D499427047894270471CF5801F08D5B7
:104B7000BCF5801FF7D58B4218BF704708BF824233
:104B800070474FF4001C1CEB410F38BF1CEB430F68
:104B900001D28B42704770B500F0B2F89224490000
:104BA0004FF000514FF08053FFF78EBD70B5DFF826
:104BB00048C11CEA111E1EBF1CEA13159EEA0C0F09
:104BC00095EA0C0F00F06F8081EA03044EEAD47E70
:104BD000AE4421EA4C1123EA4C1341F4801143F412
:104BE0008013AEF17F7EA1FB024CA0FB036536195A
:104BF00055EB0C05A1FB034C4CF10003A0FB021C80
:104C000016EB0C06654153F10003094218BF46F04C
:104C1000010613F4007F0BD14FEA03314FEA053050
:104C200041EA155140EA165034036FF003020AE0DE
:104C30004FEAC3214FEAC52041EA555140EA565098
:104C4000F4026FF0020202EB2E4201EB025585EAFC
:104C5000CE710AD05FEA440C18BF24F0004450F132
:104C6000000041F1000120EAD47040F2FE7C624570
:104C700000D270BDA84214BF4FF080444FF04044B2
:104C8000002E08BF0024BEF1806FA8BFA1F1C04173
:104C9000BDE8704080F2828001F1C04101F0004126
:104CA0004FF0000070470CEA13159EEA0C0F18BF76
:104CB00095EA0C0F06D081EA030E4FF000000EF0CB
:104CC000004170BD00F01CF88900013E00F007B8FB
:104CD00000F009B84FEA430C5FEA5C5C08D081EA57
:104CE000030100F05BB84FEA410C5FEA5C5CF6D16F
:104CF00002494FF0000070470000FF070000F87FF6
:104D00000EF1020E2EF0030E5EF8046B364205D44F
:104D1000012A43EB030515F5001F12D8012841EBCA
:104D2000010C1CF5001F0CD80ED14FEAD17C0CEB06
:104D30004C0C0CF1020C15F5001F08BF4CEBD37C9A
:104D400004E04FF0080C01E04FEAD37C0CEB4C057B
:104D500026FA05F606F00706B6F1040C06D20EEBAD
:104D6000860CBDE870404CF0010C6047DFE80CF0A9
:104D7000090B02024FF00041A1F500214FF00000A5
:104D800070BD19461046012851EB010418BFD4F537
:104D9000001484BF002001F0004170BD0808A0F598
:104DA00000114FEA3101704753EA010C17D41CF58A
:104DB000801F58BFBCF5801F00F106808B4218BFD2
:104DC000704708BF8242704707D713F5801F58BF4E
:104DD00011F5801F19D48B4270479B4270471CF518
:104DE000801F08D5BCF5801FF7D5994218BF7047C2
:104DF00008BF904270474FF4001C1CEB430F38BFB4
:104E00001CEB410F01D2994270470FB40CBC03BC9C
:104E1000FFF7C1BE10B591EA030F81F000413FF5E5
:104E2000ABAB83F0004300F0EFB800002DE9F04198
:104E300001F5801CBCF5001FC0F2C3804FEA115C75
:104E400021EA0C5141F480110CF1FD0C5FEA5C0C7D
:104E50000CF5C07C01D340004941890241EA9051E0
:104E600087023BA48E0EA45D0A0C04FB04F602FB31
:104E700006F6C6F14046A4FB0662F60D46EA422657
:104E800006FB06F4A4FB01235242C3F1404338BFA2
:104E90005B1EA6FB02420024E6FB0324D20B42EA7F
:104EA0004446A6FB0623A1FB02E2A3FB07E4A418E9
:104EB0004FF0000252F10002E3FB01426442C2F1F2
:104EC000404E38BFAEF1010EA6FB04234FF00002A6
:104ED000E6FB0E32A2FB0346B6194FF0000454F174
:104EE0000004E2FB0264A1FB06E6A4FB07E816EB64
:104EF00008064FF0000858F10008E4FB016876420C
:104F0000C8F1405838BFA8F10108A2FB06E4A3FB92
:104F100008E52D194FF0000454F10004E2FB085499
:104F2000A1FB05E6A7FB04E818EB06084FF0000616
:104F300056F10006E1FB048618F1200556F1000643
:104F4000A80940EA8660B109A8F11B0808F03F08EB
:104F5000B8F10A0F1CD901EB0C51BDE8F08100BF7C
:104F6000FCF5EEE8E2DDD8D3CFCBC7C3C0BDB9B600
:104F7000B4B1AEACA9A7A5A3A19F9D9B9A98969505
:104F80009392908F8D8C8B8988878685848382818C
:104F9000A0FB006800FB01F208EB4208B8EB872891
:104FA00007D5341858EB0104D5D5401C51F1000148
:104FB000D1E7341A78EB0104CDD4401E71F1000121
:104FC000C9E75FEA4C0C5FEA9C5C0DD105D301F0A8
:104FD00000414FF00000BDE8F081BDE8F04170B540
:104FE000FFF78EFE6DDBFFBEBDE8F04101494FF0DB
:104FF000000070470000F87F10B591EA030F48BF2A
:1050000083F000433FF5B8AA841A71EB030C07D272
:105010008CF0004C121943EB0C03001B61EB0C01EC
:105020004FEA1154A4EB135CDFF89CE11EEA430F36
:1050300018BF9EEA445F00F0B08021EA045123EAE1
:105040006E035242C3EB6E0338BF5B1EDCF1200ED1
:1050500025D322FA0CFE10EB0E0043FA0CFE41EBB6
:105060000E01CCF1200E03FA0EFE10EB0E00CCF177
:10507000200E51F1000129D401EB045112FA0EF275
:10508000BDE8104058BF7047401C1CBFB2F1004F34
:10509000704700280CBF491C20F00100704712EB3C
:1050A000020E43EB030218BF4FF0010E4EEA42021C
:1050B000ACF1200CDCF11E0E54D943FA0CFE10EBBF
:1050C0000E00CCF11E0E51F1FF31D5D50EF1010EBF
:1050D00012FA0EFE404141EB010101EB445C5FEA34
:1050E0005C5C10D901EB045110EBDE7038BFBEF1EF
:1050F000004FBDE8104018BF704700280CBF491C86
:1051000020F00100704730D24FEAD42C24F4006420
:1051100011F500111BD0B1FA81F20B3AA41AA41EAA
:10512000D2F12003914030FA03F31943904001EB90
:10513000CC7101EB0451002CBDE81040A8BF7047B2
:1051400001F1C04101F000414FF000007047B0FA9A
:1051500080F310FA03F100D110BDE41A173C4805A2
:10516000C90AE4E701EB045110BD49104FEA3000D1
:1051700001EB0451BDE8104002E04FF00001704720
:105180004A0008BF0042F8D0B2F5001F28BF7047A0
:1051900001F000414FF0000070479EEA445F07D0E5
:1051A00011EA5E0FBDE8104004BF002100207047E7
:1051B000BDE8104070B5FFF7A3FD00BF40DFF63E2D
:1051C000104683F0004170470000E0FF43004FEAC3
:1051D000D30C4FEA3C0C43401FBF40070CF1605119
:1051E00013F0FE4F70471CF0006F03D10CF000412C
:1051F000002070470CF0004343EA507040EACC00B6
:1052000010B500F004FB00BF000000924FEA00015F
:10521000FFF7C4BD4FF00041A1F500214FF00000A1
:105220007047000090EA010F48BF81F0004100F193
:105230004083421A3CBF801A89184FEAD052A2EB31
:10524000D1534FF07F4C1CEA410F18BF9CEA026F0C
:1052500000F03B804FF0004C4CEA00204CEA01216A
:1052600021FA03FC10EB0C0C1ED202F1FF325FEAB4
:105270001C2040EBC25038BF70471CF07F0F4FEA34
:10528000400C18BFBCF17F4F38BF7047C3F12003FB
:10529000994008BF20F00100BCF17F4F38BF704734
:1052A000A0F1C04000F0F9BA4FEA3C00000A40EB20
:1052B000C25028BF1CF0FF0F4FEA400CE6D018BFC9
:1052C000BCF17F4F38BF7047EAE79CEA026F05D018
:1052D00010EA5C0F08BF00F00040704710B500F006
:1052E00096FA00BF64FBBE3E10B5FFF751FB0CBF42
:1052F0000120002010BD10B5FFF74AFB14BF0120AC
:10530000002010BD10B5FFF7D9FB8CBF0120002095
:1053100010BD10B5FFF7D2FB2CBF0120002010BD3F
:1053200010B5FFF707FC94BF0120002010BD10B599
:10533000FFF700FC34BF0120002010BD10B500F0C5
:10534000F5F80CBF0120002010BD10B500F0EEF8FC
:1053500014BF0120002010BD10B500F06FF98CBF04
:105360000120002010BD10B500F068F92CBF01200D
:10537000002010BD10B500F095F994BF0120002069
:1053800010BD10B500F08EF934BF0120002010BD13
:10539000401058BFC0F14040491058BFC1F14041D2
:1053A0008142EFF3008070474FF47F0C1CEAD0126B
:1053B0001EBF1CEAD11392EA0C0F93EA0C0F00F007
:1053C000858090EA010F48BF42F4807240F4000CDF
:1053D00041F400002CF07F4120F07F4000B5A2EBAB
:1053E000030281420FF2081CACEB504E9EF800E025
:1053F000C0F100004FEA4E0E00FB0EFC38BF490022
:105400004FEA2C1C0CFB0EF34FEACE1E0EEB635E34
:105410004FEA112C0EFB0CFC4FEAC1214FEA1C5342
:1054200000FB031102F5FA024FEA112C0EFB0CFCF3
:105430004FEA01314FEADC4C00FB0C1142EB2242F7
:10544000C14228BF09184CEB03335DF804EB10EBA5
:10545000410143EBC250B2F57C0F38BF704729D5EC
:1054600012F0F00F1CBF00F1C04000F00040704788
:10547000008182838485868788898B8C8D8E8F912D
:105480009293959697999A9C9D9FA0A2A3A5A7A851
:10549000AAACAEB0B2B3B5B7B9BCBEC0C2C5C7C97D
:1054A000CCCED1D4D7D9DCDFE2E6E9ECF0F3F7FAE1
:1054B000FE0000004FEA400C0CF1807CBCF17E4FF6
:1054C00028BF7047B0F1C04000F0E7B90CEAD11333
:1054D00090EA010F48BF42F48072624538BF6345CD
:1054E00007D213F47F0F16D080EA010000F00040CD
:1054F000704710B500F08BF9097EFC3E00F005B84E
:1055000080EA010000F00040704780EA010000F0EE
:10551000004000F0C2B912F47F0F04BF0248704788
:1055200080EA010000F0B9B90000C07F50EA010C28
:1055300000F113801CF5000F58BFBCF5000F01D41B
:105540008842704707D710F5000F58BF11F5000FBC
:1055500015D488427047894270471CF5000F04D566
:10556000BCF5000FF7D5814270474FF0807C1CEBF3
:10557000400F38BF1CEB410F01D28142704710B57C
:1055800000F045F9922449004FF000504FF080514F
:10559000FFF7FEBE41000B0ED3F19E0208D950F476
:1055A00000034FEA032323FA02F048BF404270474A
:1055B00010B500F02CF900BF4992248000207047FC
:1055C0006FF0004282EA200070470000C10DD1F167
:1055D0009E0206DB4FEA002343F0004323FA02F069
:1055E0007047004207D54FEA4001B1F1FE4F02D2A9
:1055F0004FF00000704710B500F009F9499224807F
:10560000002070476FEA20007047000010F0004152
:1056100048BF4042B0FA80F310FA03F2C3F19D0391
:105620000BD051EAC35101EB1220530638BF70472B
:1056300000F1010008BF20F00100704750EA010CA2
:1056400000F113801CF5000F58BFBCF5000F01D40A
:105650008842704707D710F5000F58BF11F5000FAB
:1056600015D488427047894270471CF5000F04D555
:10567000BCF5000FF7D5814270474FF0807C1CEBE2
:10568000400F38BF1CEB410F01D28142704710B56B
:1056900000F0BDF8922449004FF080504FF00051C7
:1056A000FFF776BE50EA010C00F113801CF5000FE5
:1056B00058BFBCF5000F01D48842704707D710F5DA
:1056C000000F58BF11F5000F15D48842704789426A
:1056D00070471CF5000F04D5BCF5000FF7D58142CB
:1056E00070474FF0807C1CEB400F38BF1CEB410F24
:1056F00001D28142704710B500F089F89224490028
:105700004FF000504FF08051FFF742BE4FF47F0C36
:105710001CEAD0121EBF1CEAD11392EA0C0F93EAC6
:105720000C0F00F0478090EA010F48BF42F48072EE
:105730004FF0004C4CEA00204CEA012102EB03023E
:10574000A0FB0113A2F50002002918BF43F00103DA
:105750005B0028BF4FEA330342EB22425FEA132C7F
:105760004CEBC2502EBFBCEB436FB2F57C0F7047C1
:105770004FEA036CBCF1004F08BF20F00100B2F506
:105780007C0F38BF70470BD582F0FF0212F5803FC7
:10579000C8BF704700F1C040D8BF00F0004070475C
:1057A00000F5000C5FEA4C0C48BF7047B0F1C040F8
:1057B00000F073B80CEAD11390EA010F48BF42F42D
:1057C0008072624538BF634504D280EA010000F070
:1057D0000040704710B500F01AF800BF8900013E84
:1057E00000F007B800F009B85FEA410C5FEA1C6CF2
:1057F00008D080EA010000F050B85FEA400C5FEA90
:105800001C6CF6D14FF00040A0F5800070470EF1FF
:10581000020E2EF0030E5EF8044B244204D44FEA2D
:105820004102B2F17F4F11D84FEA4003B3F17F4FED
:105830000CD80ED14FEAD07C0CEB4C0C0CF1020CC6
:10584000B2F17F4F08BF4CEBD17C04E04FF0080C65
:1058500001E04FEAD17C0CEB4C0324FA03F404F092
:105860000704B4F1040C06D20EEB840CBDE8104022
:105870004CF0010C6047DFE80CF0070802024FF023
:105880000040A0F5800010BD0846420018BFD2F1CC
:10589000807288BF00F0004010BDFF2141EAD05067
:1058A000C005704790EA010F48BF81F000413FF505
:1058B000C0AC421A04D882F00042A0EB02001144AE
:1058C0004FEAD052A2EBD1534FF07F4C1CEA410F6C
:1058D00018BF9CEA026F4AD04FF0004C4CEA0020FF
:1058E0004CEA012121FA03FCB0EB0C0C0FD412F0AE
:1058F000FE0F36D05FEA4C001DD5001240EBC250BF
:1059000038BF70471CF03F0F18BF70470BE05FEACD
:105910001C20A2F1010240EBC25038BF70471CF0BE
:105920007F0F18BF7047C3F12003994014BF401E7A
:1059300020F0010070474FEA1223800808BF70472B
:10594000B0FA80FCA2EB0C02CCF1280C60FA0CF04F
:1059500093EA122F04BF00EBC25070474FEAC370A6
:105960007047130A5FEADC1008BF7047F6E79CEA4D
:10597000026F04D010EA5C0F08BF0020704710B51A
:10598000FFF745FF40DFF63E81F000407047FAF731
:10599000C8BE0CF00F03092B08BF082000F0598087
:1059A0000A2B0BD0082B18BF704708BF1CF0400F04
:1059B0000AD04FF000004FF0000170471CF0400F7C
:1059C00018BF4FF0004070471CF0100F08D000F0D7
:1059D0007F4220F0704342EAD3014FEA43707047A0
:1059E00000F0604021F07F4242EA000201F07F4077
:1059F00040EA727070474FF0FF0C4CF4E06C1CEA08
:105A000011531CBF9CEA030C9445C2BFDA4201EB60
:105A100002517047002B0DD0BCF1000F0FD001F0E8
:105A20000041002AA4BF41F0E04141F07F614FF006
:105A30000000704701F000414FF00000704750EA4D
:105A400001334FF09B0C18BF4CF0806C7EF434AEE9
:105A500070471CF4801F11D01CF4E02F03D06FEAB4
:105A6000CC31490070474FF04050EFF3008222F0F4
:105A7000704242EA000282F3008870474FF0000053
:105A80007047040000080000000000000002000150
:105A90000000100000000000000000000000F03FC7
:105AA000000000000000F83F0000000000000000BF
:105AB0000000004003B8E23F0000000000000000CA
:105AC00006D0CF43EBFD4C3E033333333333E33F58
:105AD000FFAB6FDBB66DDB3F4D268F515555D53F84
